1D0010017121009980          00450798A0000000000017120000000021110000000000000000RODRIGUEZ ,ALVARO  -Deb.Aut.BROU                
1D0010017121011199          00450798A0000000000017120000000025115000000000000000MACHADO CEREIJO,FERNANDO  -Deb.Aut.BROU         
1D0010017121011601          00450798A0000000000017120000000026436000000000000000MULITOR RODRIGUEZ,MABEL NANCY -DEB.AUT.B        
1D0010017121011624          00450798A0000000000017120000000021491000000000000000SANTOS TEJEIRA,DARIO MIGUEL -DEB.BROU           
1D0010017121011795          00450798A0000000000017120000000006475000000000000000XAVIER YELPO,MONICA  -DEB.AUT.BROU              
1D0010017121011983          00450798A0000000000017120000000035189000000000000000VARELA NESTIER,CARLOS RICARDO -DEB.BROU         
1D0010017121012037          00450798A0000000000017120000000025216000000000000000ROSSO RODRIGUEZ,LETICIA  -DEB.BROU              
1D0010017121012775          00450798A0000000000017120000000020436000000000000000GONZALEZ HERNANDEZ,MARCELO EDGARDO -DEB.        
1N0010017121012776          00450798A0000000000017120000000022761000000000000000GONZALEZ HERNANDEZ,MARCELO EDGARDO -DEB.        
1D0010017121013723          00450798A0000000000017120000000020304000000000000000ROSSINI ,CARMEN  -DEB.BROU                      
1D0010017121013769          00450798A0000000000017120000000015860000000000000000CAMEJO HERNANDEZ,ROSANNA LOURDES -DEB.BR        
2 001001712100000110000000000240393000000100000000000217632000000010000000000022761000000000000029740000000000000000011111111111
